:020000040000FA
:060000000A128A11EB2F29
:100012008316031314190E280F28092811081F39F3
:10002200031D142815280928080083120313A101AF
:10003200F31F1C281D282A28F009F109F209F309E7
:10004200F00A0319F10A0319F20A0319F30AA101CA
:10005200A10AF71F2D282E283D28F409F509F609D3
:10006200F709F40A0319F50A0319F60A0319F70A3C
:100072000130F8007808A1060030A5000030A40085
:100082000030A3000030A2007308720471047004EF
:1000920003194C284D289A28A001A00A5D28013096
:1000A200F8000310F00DF10DF20DF30DF80B5228CC
:1000B2000130F8007808A007F31F60286128502853
:1000C2000130F8000310A20DA30DA40DA50DF80B2D
:1000D200632873087702031D782872087602031DCD
:1000E200782871087502031D782870087402031CB1
:1000F2007B287C288B287008F4027108031C710F7E
:10010200F5027208031C720FF6027308031C730FC8
:10011200F702221401300310F30CF20CF10CF00C74
:10012200FF3E031D8C280130A002031D99289A2846
:100132006128210803199E289F28AA28A209A30939
:10014200A409A509A20A0319A30A0319A40A0319F7
:10015200A50A2508F3002408F2002308F10022086A
:10016200F000080083120313CA000A128A156D26D2
:100172000A128A1183160313240883120313AE0092
:1001820083160313250883120313AF00B001B101D4
:1001920001300310AE0DAF0DB00DB10DFF3E031DCA
:1001A200CA280030F3000030F2000030F1000830BD
:1001B200F0006508F7006408F6006308F5006208BD
:1001C200F4000A128A1116200A128A117008831288
:1001D2000313B2007108B3007208B4007308B500CB
:1001E2002E08B2022F08031C2F0FF828F928B30299
:1001F2003008031C300FFE28FF28B4023108031C0C
:10020200310F04290529B5023508A9003408A800D0
:100212003308A7003208A6008316031326088312A8
:100222000313AA0083160313270883120313AB00D8
:100232000030AB1BFF30AC00AD000A128A157325EB
:100242000A128A11831203132908CE002808CD004E
:100252002708CC002608CB000030F3000030F20063
:100262000830F1000030F0004E08F7004D08F600AB
:100272004C08F5004B08F4000A128A1116200A12E3
:100282008A11730883120313C1007208C000710837
:10029200BF007008BE0083160313240883120313E1
:1002A200AE0083160313250883120313AF00B001B7
:1002B200B1010030F3000030F2000030F1001030E4
:1002C200F0006508F7006408F6006308F5006208AC
:1002D200F4000A128A1116200A128A117008831277
:1002E2000313B2007108B3007208B4007308B500BA
:1002F2002E08B2022F08031C2F0F80298129B30276
:100302003008031C300F86298729B4023108031CE8
:10031200310F8C298D29B5023508A9003408A800AF
:100322003308A7003208A600831603132408831299
:100332000313B60083160313250883120313B700B1
:10034200B801B9010030F3000030F2000030F100D2
:100352001030F0006508F7006408F6006308F50045
:100362006208F4000A128A1116200A128A11700811
:1003720083120313BA007108BB007208BC00730831
:10038200BD003608BA023708031C370FC929CA292B
:10039200BB023808031C380FCF29D029BC02390808
:1003A200031C390FD529D629BD023D08AD003C08F2
:1003B200AC003B08AB003A08AA000A128A15732562
:1003C2000A128A11831203132908CE002808CD00CD
:1003D2002708CC002608CB000030F3000030F200E2
:1003E2001030F1000030F0004E08F7004D08F60022
:1003F2004C08F5004B08F4000A128A1116200A1262
:100402008A11730883120313A9007208A8007108E5
:10041200A7007008A600831603132808831203138B
:10042200AA0083160313290883120313AB000030BA
:10043200AB1BFF30AC00AD000A128A1573250A12FD
:100442008A11831203132908C9002808C800270843
:10045200C7002608C6000030F3000030F20040302A
:10046200F1000030F0004908F7004808F60047089C
:10047200F5004608F4000A128A1116200A128A119F
:10048200730883120313C5007208C4007108C30005
:100492007008C2003E084207AE0000300318013067
:1004A2003F07B0010318B00A4307AF000318B00AB0
:1004B20040083007B1010318B10A4407B00003181D
:1004C200B10A410831074507B1003108E10030089F
:1004D200E0002F08DF002E08DE000030F3000030BD
:1004E200F2000130F1000030F0008030AE00003048
:1004F200AF000030B0000030B1006108A900600810
:10050200A8005F08A7005E08A6000030AD0000301A
:10051200AC000030AB000530AA000A128A15732520
:100522000A128A11831203132608AE07270803183A
:10053200270F9C2A9D2AAF0728080318280FA22AF2
:10054200A32AB00729080318290AB1073108F700BE
:100552003008F6002F08F5002E08F4000A128A115E
:1005620016200A128A11831203134A0884007008A3
:1005720083138000840A71088000840A7208800054
:10058200840A73088000080083120313CA00003033
:10059200AE000630AF00FF30B000FF30B1000030D7
:1005A200F3000030F2000030F1000230F000610888
:1005B200F7006008F6005F08F5005E08F4000A1212
:1005C2008A1116200A128A11700883120313AE07C9
:1005D20071080318710FEE2AEF2AAF077208031889
:1005E200720FF42AF52AB00773080318730AB107C9
:1005F2003108DA003008D9002F08D8002E08D700B9
:100602000030F3000030F2000030F1000430F0005E
:100612005A08F7005908F6005808F5005708F40080
:100622000A128A1116200A128A11730883120313FE
:10063200A9007208A8007108A7007008A60000307F
:10064200F3000030F2000030F1000430F0005A08EC
:10065200F7005908F6005808F5005708F4000A1286
:100662008A1116200A128A11730883120313AD002D
:100672007208AC007108AB007008AA000A128A1551
:1006820073250A128A11831203132908CE0028083F
:10069200CD002708CC002608CB000030F300003044
:1006A200F2000830F1000030F0004E08F7004D086B
:1006B200F6004C08F5004B08F4000A128A111620C5
:1006C2000A128A11730883120313A9007208A80080
:1006D2007108A7007008A60083160313340883125A
:1006E2000313AA0083160313350883120313AB0006
:1006F2000030AB1BFF30AC00AD000A128A15732527
:100702000A128A11831203132908D2002808D10081
:100712002708D0002608CF004F08AE005008AF00CF
:100722005108B0005208B100831603133208831235
:100732000313A60083160313330883120313A700BF
:100742000030A71BFF30A800A9005A08AD005908C5
:10075200AC005808AB005708AA000A128A15732584
:100762000A128A11831203132608B2002708B30063
:100772002808B4002908B50001300310B20DB30DEA
:10078200B40DB50DFF3E031DBE2B3208AE07330874
:100792000318330FCD2BCE2BAF0734080318340FB9
:1007A200D32BD42BB00735080318350AB10731080B
:1007B200D2003008D1002F08D0002E08CF008316B7
:1007C2000313300883120313AE0083160313310898
:1007D20083120313AF00B001B10110300310AE0D4C
:1007E200AF0DB00DB10DFF3E031DEF2B0030F30036
:1007F2000030F2000030F1000430F0005208F7003F
:100802005108F6005008F5004F08F4000A128A1148
:1008120016200A128A11700883120313AE07710898
:100822000318710F152C162CAF0772080318720FDC
:100832001B2C1C2CB00773080318730AB10731086C
:10084200D2003008D1002F08D0002E08CF0000308F
:10085200F3000030F2000030F1000430F0005A08DA
:10086200F7005908F6005808F5005708F4000A1274
:100872008A1116200A128A11730883120313A9001F
:100882007208A8007108A7007008A6000030F300E3
:100892000030F2000030F1000430F0005A08F70096
:1008A2005908F6005808F5005708F4000A128A1190
:1008B20016200A128A11730883120313AD007208FC
:1008C200AC007108AB007008AA000A128A157325E1
:1008D2000A128A11831203132908CE002808CD00B8
:1008E2002708CC002608CB00831603132E08831298
:1008F2000313A600831603132F0883120313A70002
:100902000030A71BFF30A800A9000030F300003020
:10091200F2002030F1000030F0004E08F7004D08E0
:10092200F6004C08F5004B08F4000A128A11162052
:100932000A128A11730883120313AD007208AC0005
:100942007108AB007008AA000A128A1573250A12F0
:100952008A11831203132908C1002808C00027083E
:10096200BF002608BE000030F3000030F200003065
:10097200F1000230F000831603132C0883120313D4
:10098200A600831603132D0883120313A700003059
:10099200A71BFF30A800A9005A08AD005908AC00F7
:1009A2005808AB005708AA000A128A1573250A12C2
:1009B2008A11831203132908F7002808F600270872
:1009C200F5002608F4000A128A1116200A128A116A
:1009D200700883120313AE007108AF007208B000F2
:1009E2007308B1000030F3000030F2000030F10073
:1009F2000830F0004108F7004008F6003F08F50013
:100A02003E08F4000A128A1116200A128A1170088E
:100A120083120313AE0771080318710F112D122DE3
:100A2200AF0772080318720F172D182DB00773083D
:100A32000318730AB1073108C5003008C4002F0833
:100A4200C3002E08C2000030F3000430F200003070
:100A5200F1000030F0004508F7004408F6004308B2
:100A6200F5004208F4000A128A1116200A128A11AD
:100A7200730883120313DA007208D9007108D800D0
:100A82007008D7000030F3000030F2008030F1002F
:100A92000030F0000030AE008030AF000030B00017
:100AA2000030B1005708AE0758080318580F5A2DE6
:100AB2005B2DAF0759080318590F602D612DB00740
:100AC2005A0803185A0AB1073108A9003008A800C9
:100AD2002F08A7002E08A600831603132A088312E4
:100AE2000313AA00831603132B0883120313AB000C
:100AF200AC01AD010A128A1573250A128A118312FA
:100B020003132908F7002808F6002708F50026082D
:100B1200F4000A128A1116200A128A11730883122B
:100B22000313DA007208D9007108D8007008D700E0
:100B32005A08590458045704031DA02DA12DA22DB3
:100B4200EA2F0030AE000030AF001030B0000030AD
:100B5200B1000030F3000030F2001030F10000303C
:100B6200F0005208F7005108F6005008F5004F084F
:100B7200F4000A128A1116200A128A11831603132C
:100B8200200983120313B20083160313210983126F
:100B92000313B30083160313220983120313B40051
:100BA20083160313230983120313B500B20A031930
:100BB200B30A0319B40A0319B50A7008B20271081C
:100BC200031C710FE52DE62DB3027208031C720F90
:100BD200EB2DEC2DB4027308031C730FF12DF22DD3
:100BE200B5023208AE0733080318330FF92DFA2D78
:100BF200AF0734080318340FFF2D002EB007350855
:100C02000318350AB1073108A9003008A8002F08D7
:100C1200A7002E08A6000030AD000030AC000C305A
:100C2200AB003530AA000A128A1573250A128A11FE
:100C3200831203132908D6002808D5002708D400F8
:100C42002608D30080305602031D332E0030550291
:100C5200031D332E00305402031D332E0030530285
:100C6200031D332E0318362E372E5A2E83120313EA
:100C72005A08F3005908F2005808F1005708F0002A
:100C82000310530DF400540DF500550DF600560DEA
:100C9200F7000A128A1507260A128A1173088312AC
:100CA2000313D6007208D5007108D4007008D3006F
:100CB2007C2E831203135A08F3005908F2005808D5
:100CC200F1005708F0005608F7005508F6005408DE
:100CD200F5005308F4000A128A1507260A128A112F
:100CE2000310700D83120313D300710DD400720D23
:100CF200D500730DD6005308AE005408AF00550856
:100D0200B0005608B10003300310B10CB00CAF0CA8
:100D1200AE0CFF3E031D852E3108AD003008AC003D
:100D22002F08AB002E08AA005308B2005408B300E3
:100D32005508B4005608B50003300310B50CB40CC6
:100D4200B30CB20CFF3E031D9E2E3508A9003408D9
:100D5200A8003308A7003208A6000A128A157325D4
:100D62000A128A11831203132608B6002708B70055
:100D72002808B8002908B9000D300310B90CB80CC6
:100D8200B70CB60CFF3E031DBE2E3908C900380849
:100D9200C8003708C7003608C6000030F30000302C
:100DA200F2001030F1000030F000831603133A080D
:100DB20083120313A600831603133B088312031343
:100DC200A7000030A71BFF30A800A9004908AD000A
:100DD2004808AC004708AB004608AA000A128A1568
:100DE20073250A128A11831203132908F7002808AF
:100DF200F6002708F5002608F4000A128A111620C8
:100E02000A128A11730883120313DA007208D900D6
:100E12007108D8007008D7000030F3000030F200EB
:100E22002030F1000030F0005308AE005408AF004B
:100E32005508B0005608B10002300310B10CB00CD6
:100E4200AF0CAE0CFF3E031D1E2F3108A900300867
:100E5200A8002F08A7002E08A6008316031338083F
:100E620083120313AA008316031339088312031390
:100E7200AB000030AB1BFF30AC00AD000A128A158C
:100E820073250A128A11831203132908F70028080E
:100E9200F6002708F5002608F4000A128A11162027
:100EA2000A128A11730883120313D2007208D10046
:100EB2007108D0007008CF000030F3000030F2005B
:100EC2000030F1001030F0004F08AE005008AF00C3
:100ED2005108B0005208B1005708B2005808B300D8
:100EE2005908B4005A08B500831603133608831252
:100EF2000313B60083160313370883120313B700D4
:100F02000030B71BFF30B800B9003608B207370807
:100F12000318370F8D2F8E2FB30738080318380F99
:100F2200932F942FB40739080318390AB5073208EA
:100F3200AE0733080318330F9F2FA02FAF073408D3
:100F42000318340FA52FA62FB00735080318350A4A
:100F5200B1073108F7003008F6002F08F5002E0817
:100F6200F4000A128A1116200A128A1170088312DA
:100F720003135307BA000030031801307107BC0194
:100F82000318BC0A5407BB000318BC0A72083C07CA
:100F9200BD010318BD0A5507BC000318BD0A73083A
:100FA2003D075607BD003D08D6003C08D5003B086A
:100FB200D4003A08D3004A088400530883138000FF
:100FC200840A54088000840A55088000840A56085E
:100FD2008000080083135E3084006E300A128A1586
:100FE200E2230A128A11A0308400BC300A128A1548
:0E0FF200E2230A128A1183010A128A15812C49
:1017C40064008001840A0406031900340406E32B30
:1017D4000A128A1109200A128A1583160313111496
:1017E40008000A128A1109200A128A1583160313A3
:1017F400111508000A128A1109200A128A157008A4
:1018040083120313930008008316031788018901C8
:10181400831603138601880183120313860188014A
:101824008501831603138501003083120313A3007B
:101834000130A2008630A100A030A0000A128A154F
:10184400B7240A128A150800F5000A128A15EA2339
:101854000A128A15EE30F0000030F1000A128A15DF
:10186400FC230A128A157508F300F4017308F000CA
:101874007408F1000A128A15FC230A128A157208E8
:10188400F300F4017308F0007408F1000A128A15D9
:10189400FC230A128A150A128A15F3230A128A15DE
:1018A40008000A128A1109200A128A1583160313E2
:1018B40091150A128A1109200A128A158312031338
:1018C4001308F200F3017208F4007308F5000A1219
:1018D4008A1109200A128A1570037104031D732CDE
:1018E400742C782C8316031391127B2C8316031308
:1018F400911611167508F1007408F00008000A1218
:101904008A1506240A128A1583120313A301A30A53
:10191400A401A40AA501A60103300A128A152427EA
:101924000A128A15033083120313DD000830DC0029
:101934007630DB00DB0B9C2CDC0B9C2CDD0B9C2C15
:101944000000FF308312031385006A300A128A11E3
:10195400B3200A128A1566300A128A11C5220A12A5
:101964008A15942C0A128A11002828308312031332
:101974009400831603139101831203132008A40017
:101984002108A5002208A6002308A700023003109E
:10199400A40DA50DA60DA70DFF3E031DC92C2708F8
:1019A400F3002608F2002508F1002408F0000030B6
:1019B400F7007A30F6001230F5000030F4000A1215
:1019C4008A1507260A128A157008FF3E8316031328
:1019D40093009401871507160800F8000A128A1567
:1019E400EA230A128A15EE30F0000030F1000A12E0
:1019F4008A15FC230A128A157808F600F70176087E
:101A0400F0007708F1000A128A15FC230A128A15DD
:101A14000A128A15EA230A128A15EF30F000003000
:101A2400F1000A128A15FC230A128A150030F0000C
:101A3400F1000A128A1553240A128A157008F60056
:101A44007608F9000A128A15F3230A128A1579080E
:101A5400080083120313A0007808FA000230031070
:101A6400FA0DFF3E031D312D7908FB0004300310ED
:101A7400FB0DFF3E031D392D03107B0D7A04FC3949
:101A8400FC007C08A2007708FA0002300310FA0D6B
:101A9400FF3E031D482D7608FB0004300310FB0DA8
:101AA400FF3E031D502D03107B0D7A042004FC001F
:101AB4007C08A1002208FA007A08F200F5300A1224
:101AC4008A1526240A128A15831203132108FA00A0
:101AD4007A08F200F4300A128A1526240A128A15AA
:101AE40008000030FD000030FC000030FB00003036
:101AF400FA0083120313261C802D812D982D2A08A9
:101B0400FA072B0803110318013E03198A2DFB075A
:101B14002C0803110318013E0319912DFC072D080D
:101B240003110318013E0319982DFD070130F90034
:101B34000310AA0DAB0DAC0DAD0DF90B9A2D0130B0
:101B44000310A90CA80CA70CA60CFF3E031DA22D84
:101B54002908280427042604031DB12DB22D7B2D4A
:101B64007D08A9007C08A8007B08A7007A08A600C5
:101B74000800FA000A128A15EA230A128A15EE30BE
:101B8400F0000030F1000A128A15FC230A128A15AB
:101B94007A08F800F9017808F0007908F1000A12CF
:101BA4008A15FC230A128A150A128A15EA230A12D4
:101BB4008A15EF30F0000030F1000A128A15FC2378
:101BC4000A128A150130F0000030F1000A128A1559
:101BD40053240A128A157008F8007808FB000030B4
:101BE400F000F1000A128A1553240A128A157008AB
:101BF400F8007808FC000A128A15F3230A128A15E1
:101C04007C08F7007B08F60008000030FC00003078
:101C1400FB000030FA000030F9007308720471040C
:101C240070040319162E172E642EFD01FD0A272EAB
:101C34000130F8000310F00DF10DF20DF30DF80B67
:101C44001C2E0130F8007808FD07F31F2A2E2B2ED6
:101C54001A2E0130F8000310F90DFA0DFB0DFC0DDE
:101C6400F80B2D2E73087702031D422E720876029C
:101C7400031D422E71087502031D422E7008740262
:101C8400031C452E462E552E7008F4027108031CC1
:101C9400710FF5027208031C720FF6027308031C1D
:101CA400730FF702791401300310F30CF20CF10CEA
:101CB400F00CFF3E031D562E0130FD02031D632E62
:101CC400642E2B2E7C08F3007B08F2007A08F100C6
:101CD4007908F0000800FD010A128A15EA230A12A5
:101CE4008A15EE30F0000030F1000A128A15FC2348
:101CF4000A128A15F730F0000030F1000A128A1532
:101D0400FC230A128A150A128A15EA230A128A1572
:101D1400EF30F0000030F1000A128A15FC230A1299
:101D24008A150130F0000030F1000A128A1553249C
:101D34000A128A157008F6007608FC000130F000DB
:101D44000030F1000A128A1553240A128A15700809
:101D5400F6007608FB000130F0000030F1000A12B2
:101D64008A1553240A128A157008F6007608FA00B8
:101D74007A08F6007B08F7007C08F8007D08F90073
:101D840004300310F90CF80CF70CF60CFF3E031D9D
:101D9400C32EFF30760583160313A000FF307705AA
:101DA400A1000F307805A20000307905A3000130AE
:101DB400F0000030F1000A128A1553240A128A1521
:101DC4007008F6007608FC000130F0000030F100E5
:101DD4000A128A1553240A128A157008F600760826
:101DE400FB000030F000F1000A128A1553240A1295
:101DF4008A157008F6007608FA000A128A15F32389
:101E04000A128A157A08F6007B08F7007C08F800A5
:101E14007D08F90004300310F90CF80CF70CF60CEB
:101E2400FF3E031D0D2FFF30760583120313E200DE
:101E3400FF307705E3000F307805E40000307905C2
:101E4400E5000800FD00D0300A128A15EF240A12BA
:101E54008A15583A03192F2F302F312FFF2FB63000
:101E640083120313A7002708F200E0300A128A1530
:101E740026240A128A15023083120313A90004309F
:101E8400A800B930A700A70B452FA80B452FA90B15
:101E9400452F4C2FF3300A128A15EF240A128A15A3
:101EA4000139031D562F572F3D2F88300A128A15EA
:101EB400BB250A128A15770883160313A500760832
:101EC400A4008A300A128A15BB250A128A157708DB
:101ED40083160313A7007608A6008C300A128A150D
:101EE400BB250A128A15770883160313A9007608FE
:101EF400A8008E300A128A15BB250A128A157708A3
:101F040083160313AB007608AA0090300A128A15D0
:101F1400BB250A128A15770883160313AD007608C9
:101F2400AC0092300A128A15BB250A128A1577086A
:101F340083160313AF007608AE0094300A128A1594
:101F4400BB250A128A15770883160313B100760895
:101F5400B00096300A128A15BB250A128A15770832
:101F640083160313B3007608B20098300A128A1558
:101F7400BB250A128A15770883160313B500760861
:101F8400B4009A300A128A15BB250A128A157708FA
:101F940083160313B7007608B6009C300A128A151C
:101FA400BB250A128A15770883160313B90076082D
:101FB400B8009E300A128A15BB250A128A157708C2
:101FC40083160313BB007608BA0083120313230895
:101FD400A7002708F6002408A8002808F700250809
:101FE400A9002908F8002608AA002A08F9007D0893
:0C1FF4000A128A152B250A128A15080013
:04400E00F423FF3F59
:00000001FF
