:020000040000FA
:060000000A128A11EB2F29
:100F720064008001840A0406031900340406BA2FAF
:100F820083160317880189018316031386018801DA
:100F920083120313860188018501831603138501D9
:100FA20008000A128A11C1270A128A110330FA00B4
:100FB2000830F9007730F800F80BDD2FF90BDD2F40
:100FC200FA0BDD2FFF30831203138500D72F0A128D
:100FD2008A1100287030840078300A128A11B927E9
:100FE2000A128A118313203084003C300A128A11BB
:0E0FF200B9270A128A1183010A128A11D22F1E
:04400E00F423FF3F59
:00000001FF
