:020000040000FA
:060000000A128A110C280F
:10000800FE00030EF1000A08F2000A128A15BC2944
:100018000A128A110F288313643084006D300A1283
:100028008A1584210A128A11A0308400CC300A1261
:100038008A1584210A128A1183010A128A15F12B62
:1000480083120313D0000030B4000630B500FF302F
:10005800B600FF30B7000030F6000030F500003081
:10006800F4000230F300831603132308FA00220871
:10007800F9002108F8002008F7000A128A157B24E5
:100088000A128A11730883120313B4077408031839
:10009800740F4F285028B50775080318750F552891
:1000A8005628B60776080318760AB7073708E00017
:1000B8003608DF003508DE003408DD000030F600C1
:1000C8000030F5000030F4000430F3006008FA0056
:1000D8005F08F9005E08F8005D08F7000A128A1543
:1000E8007B240A128A11760883120313AA00750862
:1000F800A9007408A8007308A7000030F6000030B3
:10010800F5000030F4000430F3006008FA005F08DE
:10011800F9005E08F8005D08F7000A128A157B24CA
:100128000A128A11760883120313AE007508AD000F
:100138007408AC007308AB000A128A1553230A121C
:100148008A11831203132A08D4002908D300280827
:10015800D2002708D1000030F6000030F500083042
:10016800F4000030F3005408FA005308F90052086C
:10017800F8005108F7000A128A157B240A128A111E
:10018800760883120313AA007508A9007408A8004A
:100198007308A700831603133C0883120313AB00EC
:1001A800831603133D0883120313AC000030AC1B05
:1001B800FF30AD00AE000A128A1553230A128A11C5
:1001C800831203132A08D8002908D7002808D60064
:1001D8002708D5005508B4005608B5005708B600DA
:1001E8005808B700831603133A0883120313A700AD
:1001F800831603133B0883120313A8000030A81BBF
:10020800FF30A900AA006008AE005F08AD005E08D4
:10021800AC005D08AB000A128A1553230A128A1132
:10022800831203132708B8002808B9002908BA0060
:100238002A08BB0001300310B80DB90DBA0DBB0D6B
:10024800FF3E031D1F293808B40739080318390F62
:100258002E292F29B5073A0803183A0F34293529CA
:10026800B6073B0803183B0AB7073708D800360813
:10027800D7003508D6003408D5008316031338088C
:1002880083120313B400831603133908831203136C
:10029800B500B601B70110300310B40DB50DB60D99
:1002A800B70DFF3E031D50290030F6000030F50061
:1002B8000030F4000430F3005808FA005708F90039
:1002C8005608F8005508F7000A128A157B240A1206
:1002D8008A11730883120313B40774080318740F80
:1002E80076297729B50775080318750F7C297D29A4
:1002F800B60776080318760AB7073708D80036080D
:10030800D7003508D6003408D5000030F600003094
:10031800F5000030F4000430F3006008FA005F08CC
:10032800F9005E08F8005D08F7000A128A157B24B8
:100338000A128A11760883120313AA007508A90005
:100348007408A8007308A7000030F6000030F50014
:100358000030F4000430F3006008FA005F08F90088
:100368005E08F8005D08F7000A128A157B240A1255
:100378008A11760883120313AE007508AD0074085D
:10038800AC007308AB000A128A1553230A128A11AB
:10039800831203132A08D4002908D3002808D2009E
:1003A8002708D10083160313360883120313A70006
:1003B80083160313370883120313A8000030A81B01
:1003C800FF30A900AA000030F6000030F500203008
:1003D800F4000030F3005408FA005308F9005208FA
:1003E800F8005108F7000A128A157B240A128A11AC
:1003F800760883120313AE007508AD007408AC00CC
:100408007308AB000A128A1553230A128A11831241
:1004180003132A08C7002908C6002808C5002708AA
:10042800C4000030F6000030F5000030F40002305F
:10043800F30083160313340883120313A7008316EB
:100448000313350883120313A8000030A81BFF30DC
:10045800A900AA006008AE005F08AD005E08AC0005
:100468005D08AB000A128A1553230A128A118312F7
:1004780003132A08FA002908F9002808F8002708B1
:10048800F7000A128A157B240A128A11730883124C
:100498000313B4007408B5007508B6007608B700F1
:1004A8000030F6000030F5000030F4000830F300AA
:1004B8004708FA004608F9004508F8004408F7001C
:1004C8000A128A157B240A128A11730883120313ED
:1004D800B40774080318740F722A732AB5077508CD
:1004E8000318750F782A792AB60776080318760A4A
:1004F800B7073708CB003608CA003508C9003408E2
:10050800C8000030F6000430F5000030F400003078
:10051800F3004B08FA004A08F9004908F8004808AF
:10052800F7000A128A157B240A128A1176088312A8
:100538000313E0007508DF007408DE007308DD00AF
:100548000030F6000030F5008030F4000030F30091
:100558000030B4008030B5000030B6000030B7007D
:100568005D08B4075E0803185E0FBB2ABC2AB507EE
:100578005F0803185F0FC12AC22AB607600803186C
:10058800600AB7073708AA003608A9003508A80086
:100598003408A70083160313320883120313AB0031
:1005A80083160313330883120313AC00AD01AE01A5
:1005B8000A128A1553230A128A11831203132A086E
:1005C800FA002908F9002808F8002708F7000A1295
:1005D8008A157B240A128A11760883120313E00015
:1005E8007508DF007408DE007308DD0060085F042A
:1005F8005E045D04031D012B022B032B4B2D0030E1
:10060800B4000030B5001030B6000030B70000303C
:10061800F6000030F5001030F4000030F300580800
:10062800FA005708F9005608F8005508F7000A12AA
:100638008A157B240A128A1183160313240983124C
:100648000313B80083160313250983120313B90093
:1006580083160313260983120313BA0083160313A0
:10066800270983120313BB00B80A0319B90A03192F
:10067800BA0A0319BB0A7308B8027408031C740F7A
:10068800462B472BB9027508031C750F4C2B4D2BB5
:10069800BA027608031C760F522B532BBB0238087C
:1006A800B40739080318390F5A2B5B2BB5073A08DA
:1006B80003183A0F602B612BB6073B0803183B0A57
:1006C800B7073708AA003608A9003508A800340873
:1006D800A7000030AE000030AD000C30AC00353063
:1006E800AB000A128A1553230A128A1183120313C4
:1006F8002A08DC002908DB002808DA002708D900C6
:1007080080305C02031D942B00305B02031D942B88
:1007180000305A02031D942B00305902031D942BFC
:100728000318972B982BBB2B831203136008F60032
:100738005F08F5005E08F4005D08F3000310590D2A
:10074800F7005A0DF8005B0DF9005C0DFA000A126B
:100758008A1184270A128A11760883120313DC008F
:100768007508DB007408DA007308D900DD2B8312E2
:1007780003136008F6005F08F5005E08F4005D08E2
:10078800F3005C08FA005B08F9005A08F8005908F9
:10079800F7000A128A1184270A128A110310730DAE
:1007A80083120313D900740DDA00750DDB00760D82
:1007B800DC005908B4005A08B5005B08B6005C08AC
:1007C800B70003300310B70CB60CB50CB40CFF3EE1
:1007D800031DE62B3708AE003608AD003508AC001F
:1007E8003408AB005908B8005A08B9005B08BA00C9
:1007F8005C08BB0003300310BB0CBA0CB90CB80C76
:10080800FF3E031DFF2B3B08AA003A08A900390840
:10081800A8003808A7000A128A1553230A128A1159
:10082800831203132708BC002808BD002908BE004E
:100838002A08BF000D300310BF0CBE0CBD0CBC0C49
:10084800FF3E031D1F2C3F08CF003E08CE003D0889
:10085800CD003C08CC000030F6000030F500103028
:10086800F4000030F30083160313420883120313C5
:10087800A70083160313430883120313A80000304C
:10088800A81BFF30A900AA004F08AE004E08AD0013
:100898004D08AC004C08AB000A128A1553230A1203
:1008A8008A11831203132A08FA002908F900280874
:1008B800F8002708F7000A128A157B240A128A1101
:1008C800760883120313E0007508DF007408DE0061
:1008D8007308DD000030F6000030F5002030F40029
:1008E8000030F3005908B4005A08B5005B08B60098
:1008F8005C08B70002300310B70CB60CB50CB40C8A
:10090800FF3E031D7F2C3708AA003608A9003508CA
:10091800A8003408A70083160313400883120313A2
:10092800AB0083160313410883120313AC00003095
:10093800AC1BFF30AD00AE000A128A1553230A1211
:100948008A11831203132A08FA002908F9002808D3
:10095800F8002708F7000A128A157B240A128A1160
:10096800760883120313D8007508D7007408D600D8
:100978007308D5000030F6000030F5000030F400B0
:100988001030F3005508B4005608B5005708B600F3
:100998005808B7005D08B8005E08B9005F08BA00DB
:1009A8006008BB00831603133E0883120313BC00C0
:1009B800831603133F0883120313BD000030BD1BC9
:1009C800FF30BE00BF003C08B8073D0803183D0FC4
:1009D800EE2CEF2CB9073E0803183E0FF42CF52C2B
:1009E800BA073F0803183F0ABB073808B407390895
:1009F8000318390F002D012DB5073A0803183A0FCF
:100A0800062D072DB6073B0803183B0AB70737081A
:100A1800FA003608F9003508F8003408F7000A1219
:100A28008A157B240A128A11730883120313590743
:100A3800C0000030031801307407C2010318C20A4D
:100A48005A07C1000318C20A75084207C3010318F0
:100A5800C30A5B07C2000318C30A760843075C078A
:100A6800C3004308DC004208DB004108DA00400804
:100A7800D90050088400590883138000840A5A0852
:100A88008000840A5B088000840A5C0880000800F3
:100A980083120313D0000A128A15F6250A128A1146
:100AA800831603132C0883120313B400831603134D
:100AB8002D0883120313B500B601B70101300310E6
:100AC800B40DB50DB60DB70DFF3E031D632D0030F7
:100AD800F6000030F5000030F4000830F30083160B
:100AE80003132B08FA002A08F9002908F800280837
:100AF800F7000A128A157B240A128A1173088312D6
:100B08000313B8007408B9007508BA007608BB006A
:100B18003408B8023508031C350F932D942DB902FB
:100B28003608031C360F992D9A2DBA023708031C74
:100B3800370F9F2DA02DBB023B08AA003A08A90039
:100B48003908A8003808A700831603132E08831253
:100B58000313AB00831603132F0883120313AC008F
:100B68000030AC1BFF30AD00AE000A128A155323CB
:100B78000A128A11831203132A08D4002908D30001
:100B88002808D2002708D1000030F6000030F50010
:100B98000830F4000030F3005408FA005308F90054
:100BA8005208F8005108F7000A128A157B240A1225
:100BB8008A11760883120313C7007508C6007408E3
:100BC800C5007308C400831603132C08831203138B
:100BD800B400831603132D0883120313B500B6015E
:100BE800B7010030F6000030F5000030F400103096
:100BF800F300831603132B08FA002A08F9002908C2
:100C0800F8002808F7000A128A157B240A128A11AC
:100C1800730883120313B8007408B9007508BA0082
:100C28007608BB003408B8023508031C350F1D2EA2
:100C38001E2EB9023608031C360F232E242EBA02A4
:100C48003708031C370F292E2A2EBB023B08AA009F
:100C58003A08A9003908A8003808A7008316031322
:100C68002C0883120313BC00831603132D08831268
:100C78000313BD00BE01BF010030F6000030F500CF
:100C88000030F4001030F300831603132B08FA0029
:100C98002A08F9002908F8002808F7000A128A1516
:100CA8007B240A128A11730883120313C000740884
:100CB800C1007508C2007608C3003C08C0023D08A0
:100CC800031C3D0F682E692EC1023E08031C3E0F0F
:100CD8006E2E6F2EC2023F08031C3F0F742E752E16
:100CE800C3024308AE004208AD004108AC0040080A
:100CF800AB000A128A1553230A128A1183120313AE
:100D08002A08D4002908D3002808D2002708D100CF
:100D18000030F6000030F5001030F4000030F30029
:100D28005408FA005308F9005208F8005108F7006F
:100D38000A128A157B240A128A1176088312031371
:100D4800AA007508A9007408A8007308A7008316EC
:100D58000313300883120313AB00831603133108FF
:100D680083120313AC000030AC1BFF30AD00AE00A3
:100D78000A128A1553230A128A11831203132A08A6
:100D8800CF002908CE002808CD002708CC00003065
:100D9800F6000030F5004030F4000030F3004F0852
:100DA800FA004E08F9004D08F8004C08F7000A123E
:100DB8008A157B240A128A11760883120313CB0042
:100DC8007508CA007408C9007308C80044084807B1
:100DD800B4000030031801304507B6010318B60AFD
:100DE8004907B5000318B60A46083607B7010318BD
:100DF800B70A4A07B6000318B70A470837074B0768
:100E0800B700370883160313A300831203133608A9
:100E180083160313A20083120313350883160313E2
:100E2800A10083120313340883160313A0000030B3
:100E3800F6000030F5000130F4000030F300803097
:100E480083120313B4000030B5000030B600003040
:100E5800B70083160313230883120313AA0083160B
:100E68000313220883120313A9008316031321080E
:100E780083120313A8008316031320088312031395
:100E8800A7000030AE000030AD000030AC000530E7
:100E9800AB000A128A1553230A128A11831203130C
:100EA8002708B40728080318280F5B2F5C2FB507FD
:100EB80029080318290F612F622FB6072A0803187B
:100EC8002A0AB7073708FA003608F9003508F80083
:100ED8003408F7000A128A157B240A128A11831231
:100EE800031350088400730883138000840A74086D
:100EF8008000840A75088000840A7608800008004B
:100F0800003083120313A4000030A3000030A200B5
:100F18000030A10076087504740473040319952F32
:100F2800962FE32FA501A50AA62F0130A0000310D4
:100F3800F30DF40DF50DF60DA00B9B2F0130A0005D
:100F48002008A507F61FA92FAA2F992F0130A00066
:100F58000310A10DA20DA30DA40DA00BAC2F7608B4
:100F68007A02031DC12F75087902031DC12F740869
:100F78007802031DC12F73087702031CC42FC52FE5
:100F8800D42F7308F7027408031C740FF80275084D
:100F9800031C750FF9027608031C760FFA02211458
:100FA80001300310F60CF50CF40CF30CFF3E031D96
:100FB800D52F0130A502031DE22FE32FAA2F240805
:100FC800F6002308F5002208F4002108F3000800C1
:100FD800831603131419F12FF22FEC2F11081F3960
:0A0FE800031DF72FF82FEC2F08006F
:1010000008308A000408840A820700342E34003431
:041010005334003421
:1013080064008001840A0406031900340406852950
:101318000A128A11EC270A128A158316031311146C
:1013280008000A128A11EC270A128A158316031379
:101338001115080083120313981CA329A429A629B0
:10134800181218161A0808000A128A11EC270A122D
:101358008A1573088312031393000800F30083129D
:1013680003130C1EB829B929B3297308990008007A
:10137800831203138C1EC129C229CD290A128A158A
:101388009E210A128A15F000700883120313E800E0
:101398008C1272088A00710E8300FE0E7E0E090000
:1013A80083160317880189018316031386018801B0
:1013B8008501831203138601880185010030A90085
:1013C8000130A8008630A700A030A6000A128A15AE
:1013D8008F220A128A150800F500022A750884006F
:1013E8000A128A1500200A128A150A128A15B221D1
:1013F8000A128A150130F4007408F507750884008C
:101408000A128A1500200A128A15003A031D0D2AAD
:101418000E2AF2290800F701F801731C142A152A6C
:101428001B2A7508F7070318F80A7608F807013029
:101438000310F50DF60DFF3E031D1C2A01300310A5
:10144800F40CF30CFF3E031D232A73087404031DD8
:101458002E2A2F2A112A7808F4007708F3000800AA
:10146800F8000A128A158C210A128A15EE30F30048
:101478000030F4000A128A15A8210A128A15780881
:10148800F600F7017608F3007708F4000A128A15C7
:10149800A8210A128A157508F600F7017608F300E4
:1014A8007708F4000A128A15A8210A128A150A1266
:1014B8008A1595210A128A1508000A128A11EC2742
:1014C8000A128A158316031391150A128A11EC273A
:1014D8000A128A15831203131308F500F60175081A
:1014E800F7007608F8000A128A11EC270A128A1502
:1014F80073037404031D812A822A862A8316031320
:101508009112892A83160313911611167808F4008C
:101518007708F30008002830831203139400831619
:1015280003139101831203132608AA002708AB00AE
:101538002808AC002908AD0002300310AA0DAB0D35
:10154800AC0DAD0DFF3E031DA12A2D08F6002C0899
:10155800F5002B08F4002A08F3000030FA007A306E
:10156800F9001230F8000030F7000A128A118427B7
:101578000A128A157308FF3E831603139300940119
:1015880087150716080083120313A0000A128A158C
:101598008C210A128A15EE30F3000030F4000A128A
:1015A8008A15A8210A128A15831203132008F90044
:1015B800FA017908F3007A08F4000A128A15A821BA
:1015C8000A128A150A128A158C210A128A15EF3016
:1015D800F3000030F4000A128A15A8210A128A15AD
:1015E8000030F300F4000A128A1561220A128A15E3
:1015F8007308F900790883120313A1000A128A15E7
:1016080095210A128A1583120313210808008312F0
:101618000313A7002208A40002300310A40DFF3E04
:10162800031D112B2308A50004300310A50DFF3E50
:10163800031D192B0310250D2404FC39A6002608C8
:10164800A9002108A40002300310A40DFF3E031DC9
:10165800282B2008A50004300310A50DFF3E031D0C
:10166800302B0310250D24042704A6002608A80003
:101678002908A4002408F500F5300A128A15342236
:101688000A128A15831203132808A4002408F500F7
:10169800F4300A128A1534220A128A15080000301A
:1016A80083120313B3000030B2000030B1000030E1
:1016B800B000271C602B612B782B2B08B0072C0857
:1016C80003110318013E03196A2BB1072D080311F2
:1016D8000318013E0319712BB2072E0803110318D2
:1016E800013E0319782BB3070130AF000310AB0D8F
:1016F800AC0DAD0DAE0DAF0B7A2B01300310AA0C5B
:10170800A90CA80CA70CFF3E031D822B2A0829044C
:1017180028042704031D912B922B5D2B3308AA0064
:101728003208A9003108A8003008A7000800831271
:101738000313A2000A128A158C210A128A15EE30A8
:10174800F3000030F4000A128A15A8210A128A153B
:10175800831203132208A000A1012008F300210826
:10176800F4000A128A15A8210A128A150A128A1583
:101778008C210A128A15EF30F3000030F4000A12A7
:101788008A15A8210A128A150130F3000030F400E6
:101798000A128A1561220A128A1573088312031322
:1017A800A0002008A3000030F300F4000A128A15F4
:1017B80061220A128A15730883120313A0002008F5
:1017C800A4000A128A1595210A128A158312031396
:1017D8002408FA002308F90008000A128A15D421FF
:1017E8000A128A1583120313AA01AA0AAB01AB0ACB
:1017F800AC01AD0103300A128A1518250A128A15A0
:10180800033083120313E3000830E2007630E1006E
:10181800E10B0C2CE20B0C2CE30B0C2C0000FF3022
:10182800831203138500C8300A128A114C250A1244
:101838008A15C4300A128A1124200A128A150A123B
:101848008A15D5260A128A1503300A128A15F0213C
:101858000A128A15831203136C080A128A15B22118
:101868000A128A15831203136B080A128A15B22109
:101878000A128A1501300A128A15F0210A128A15ED
:10188800831203136A080A128A15B2210A128A15EA
:101898008312031369080A128A15B2210A128A15DB
:1018A800602C8617042C8613042C0613042C0617A8
:1018B800042C86130613042C831203136808E10012
:1018C800E2016208003A03196A2C5D2C6108303A7B
:1018D8000319572C013A0319552C033A0319592CAB
:1018E800013A03195B2C5D2C0A128A110C28831209
:1018F8000313A201F61F812C822C8F2CF309F40903
:10190800F509F609F30A0319F40A0319F50A031984
:10191800F60AA201A20AFA1F922C932CA22CF7090C
:10192800F809F909FA09F70A0319F80A0319F90A6B
:101938000319FA0A0130A0002008A2060030A60008
:101948000030A5000030A4000030A300760875041C
:10195800740473040319B12CB22CFF2CA101A10A41
:10196800C22C0130A0000310F30DF40DF50DF60D97
:10197800A00BB72C0130A0002008A107F61FC52C2A
:10198800C62CB52C0130A0000310A30DA40DA50D85
:10199800A60DA00BC82C76087A02031DDD2C75084D
:1019A8007902031DDD2C74087802031DDD2C7308F1
:1019B8007702031CE02CE12CF02C7308F702740862
:1019C800031C740FF8027508031C750FF9027608DA
:1019D800031C760FFA02231401300310F60CF50CE1
:1019E800F40CF30CFF3E031DF12C0130A102031D82
:1019F800FE2CFF2CC62C22080319032D042D0F2DB5
:101A0800A309A409A509A609A30A0319A40A031985
:101A1800A50A0319A60A2608F6002508F5002408D1
:101A2800F4002308F300080083120313B200D03037
:101A38000A128A15C7220A128A15583A0319252D3F
:101A4800262D272DF52DB63083120313AE002E0850
:101A5800F500E0300A128A1534220A128A1502307B
:101A680083120313B0000430AF00B930AE00AE0BE0
:101A78003B2DAF0B3B2DB00B3B2D422DF3300A1203
:101A88008A15C7220A128A150139031D4C2D4D2DBE
:101A9800332D88300A128A159B230A128A157A0870
:101AA80083160313AD007908AC008A300A128A1530
:101AB8009B230A128A157A0883160313AF00790844
:101AC800AE008C300A128A159B230A128A157A08EE
:101AD80083160313B1007908B0008E300A128A15F4
:101AE8009B230A128A157A0883160313B300790810
:101AF800B20090300A128A159B230A128A157A08B6
:101B080083160313B5007908B40092300A128A15B7
:101B18009B230A128A157A0883160313B7007908DB
:101B2800B60094300A128A159B230A128A157A087D
:101B380083160313B9007908B80096300A128A157B
:101B48009B230A128A157A0883160313BB007908A7
:101B5800BA0098300A128A159B230A128A157A0845
:101B680083160313BD007908BC009A300A128A153F
:101B78009B230A128A157A0883160313BF00790873
:101B8800BE009C300A128A159B230A128A157A080D
:101B980083160313C1007908C0009E300A128A1503
:101BA8009B230A128A157A0883160313C30079083F
:101BB800C200831203132A08AE002E08A0002B08C7
:101BC800AF002F08A1002C08B0003008A2002D0893
:101BD800B1003108A30032080A128A150B230A1231
:101BE8008A15080083120313A7010A128A158C218B
:101BF8000A128A15EE30F3000030F4000A128A1532
:101C0800A8210A128A15F730F3000030F4000A12EE
:101C18008A15A8210A128A150A128A158C210A1215
:101C28008A15EF30F3000030F4000A128A15A82153
:101C38000A128A150130F3000030F4000A128A15DE
:101C480061220A128A15730883120313A000200860
:101C5800A6000130F3000030F4000A128A15612250
:101C68000A128A15730883120313A0002008A5001E
:101C78000130F3000030F4000A128A1561220A12BA
:101C88008A15730883120313A0002008A4002408EF
:101C9800A0002508A1002608A2002708A3000430F8
:101CA8000310A30CA20CA10CA00CFF3E031D542E84
:101CB800FF30200583160313A400FF30831203139B
:101CC800210583160313A5000F3083120313220581
:101CD80083160313A600003083120313230583160B
:101CE8000313A7000130F3000030F4000A128A152C
:101CF80061220A128A15730883120313A0002008B0
:101D0800A6000130F3000030F4000A128A1561229F
:101D18000A128A15730883120313A0002008A5006D
:101D28000030F300F4000A128A1561220A128A159B
:101D3800730883120313A0002008A4000A128A154E
:101D480095210A128A15831203132408A000250876
:101D5800A1002608A2002708A30004300310A30C42
:101D6800A20CA10CA00CFF3E031DB22EFF302005D3
:101D780083160313A800FF3083120313210583166B
:101D88000313A9000F3083120313220583160313CC
:101D9800AA00003083120313230583160313AB0034
:101DA8000800831603134B0883120313E7008316F6
:101DB80003134A0883120313E60083160313490822
:101DC80083120313E50083160313480883120313D1
:101DD800E4000030F6000030F5000330F400E8308D
:101DE800F3006708FA006608F9006508F800640857
:101DF800F7000A128A1184270A128A1573088312B7
:101E08000313A6002608EC006C08A600A701260804
:101E1800F3002708F400E830F5000330F6000A1252
:101E28008A150F220A128A15730883120313A80051
:101E38007408A9000030A91BFF30AA00AB00640891
:101E4800AC006508AD006608AE006708AF0028085A
:101E5800AC022908031C290F322F332FAD022A08A0
:101E6800031C2A0F382F392FAE022B08031C2B0F07
:101E78003E2F3F2FAF022F08E7002E08E6002D085F
:101E8800E5002C08E4000030F6000030F5000030D2
:101E9800F4006430F3006708FA006608F900650882
:101EA800F8006408F7000A128A1184270A128A15B2
:101EB800730883120313A6002608EB006B08A6001C
:101EC800A7012608F3002708F4006430F500003065
:101ED800F6000A128A150F220A128A15730883124D
:101EE8000313A8007408A9000030A91BFF30AA003A
:101EF800AB006408AC006508AD006608AE00670872
:101F0800AF002808AC022908031C290F8C2F8D2F3D
:101F1800AD022A08031C2A0F922F932FAE022B081A
:101F2800031C2B0F982F992FAF022F08E7002E08BC
:101F3800E6002D08E5002C08E4000030F60000302B
:101F4800F5000030F4000A30F3006708FA0066086C
:101F5800F9006508F8006408F7000A128A11842756
:101F68000A128A15730883120313A6002608EA00CA
:101F78006A08A600A7012608F3002708F4000A301B
:101F8800F5000030F6000A128A150F220A128A1587
:101F9800730883120313A8007408A9000030A91B52
:101FA800FF30AA00AB006408AC006508AD00660805
:101FB800AE006708AF002808AC022908031C290FE7
:101FC800E62FE72FAD022A08031C2A0FEC2FED2F6E
:101FD800AE022B08031C2B0FF22FF32FAF022F0892
:101FE800E7002E08E6002D08E5002C08E400640848
:081FF800A6002608E90008001C
:04400E00F423FF3F59
:00000001FF
